{
  "contractName": "Graph",
  "abi": [
    {
      "inputs": [],
      "payable": false,
      "stateMutability": "nonpayable",
      "type": "constructor"
    },
    {
      "anonymous": false,
      "inputs": [
        {
          "indexed": false,
          "internalType": "uint256",
          "name": "id",
          "type": "uint256"
        },
        {
          "indexed": false,
          "internalType": "address",
          "name": "child",
          "type": "address"
        },
        {
          "indexed": false,
          "internalType": "address",
          "name": "parent",
          "type": "address"
        }
      ],
      "name": "Followed",
      "type": "event"
    },
    {
      "anonymous": false,
      "inputs": [
        {
          "indexed": false,
          "internalType": "uint256",
          "name": "id",
          "type": "uint256"
        },
        {
          "indexed": false,
          "internalType": "address",
          "name": "parent",
          "type": "address"
        },
        {
          "indexed": false,
          "internalType": "address",
          "name": "child",
          "type": "address"
        }
      ],
      "name": "FollowerDeleted",
      "type": "event"
    },
    {
      "anonymous": false,
      "inputs": [
        {
          "indexed": false,
          "internalType": "uint256",
          "name": "id",
          "type": "uint256"
        },
        {
          "indexed": false,
          "internalType": "address",
          "name": "child",
          "type": "address"
        },
        {
          "indexed": false,
          "internalType": "address",
          "name": "parent",
          "type": "address"
        }
      ],
      "name": "Unfollowed",
      "type": "event"
    },
    {
      "constant": true,
      "inputs": [
        {
          "internalType": "address",
          "name": "",
          "type": "address"
        },
        {
          "internalType": "address",
          "name": "",
          "type": "address"
        }
      ],
      "name": "followedBy",
      "outputs": [
        {
          "internalType": "bool",
          "name": "",
          "type": "bool"
        }
      ],
      "payable": false,
      "stateMutability": "view",
      "type": "function"
    },
    {
      "constant": true,
      "inputs": [
        {
          "internalType": "address",
          "name": "",
          "type": "address"
        }
      ],
      "name": "followerCount",
      "outputs": [
        {
          "internalType": "uint32",
          "name": "",
          "type": "uint32"
        }
      ],
      "payable": false,
      "stateMutability": "view",
      "type": "function"
    },
    {
      "constant": true,
      "inputs": [
        {
          "internalType": "address",
          "name": "",
          "type": "address"
        },
        {
          "internalType": "address",
          "name": "",
          "type": "address"
        }
      ],
      "name": "following",
      "outputs": [
        {
          "internalType": "bool",
          "name": "",
          "type": "bool"
        }
      ],
      "payable": false,
      "stateMutability": "view",
      "type": "function"
    },
    {
      "constant": false,
      "inputs": [
        {
          "internalType": "address",
          "name": "parent",
          "type": "address"
        }
      ],
      "name": "follow",
      "outputs": [],
      "payable": false,
      "stateMutability": "nonpayable",
      "type": "function"
    },
    {
      "constant": false,
      "inputs": [
        {
          "internalType": "address",
          "name": "parent",
          "type": "address"
        }
      ],
      "name": "unfollow",
      "outputs": [],
      "payable": false,
      "stateMutability": "nonpayable",
      "type": "function"
    },
    {
      "constant": false,
      "inputs": [
        {
          "internalType": "address",
          "name": "child",
          "type": "address"
        }
      ],
      "name": "deleteFollower",
      "outputs": [],
      "payable": false,
      "stateMutability": "nonpayable",
      "type": "function"
    }
  ],
  "bytecode": "0x608060405234801561001057600080fd5b506000600381905550610a4b806100286000396000f3fe608060405234801561001057600080fd5b50600436106100625760003560e01c8063015a4ead146100675780632b31a03e146100ab57806330b3a890146101275780634dbf27cc1461018b5780636b14d046146101cf578063ce9ae00114610213575b600080fd5b6100a96004803603602081101561007d57600080fd5b81019080803573ffffffffffffffffffffffffffffffffffffffff16906020019092919050505061028f565b005b61010d600480360360408110156100c157600080fd5b81019080803573ffffffffffffffffffffffffffffffffffffffff169060200190929190803573ffffffffffffffffffffffffffffffffffffffff1690602001909291905050506104e7565b604051808215151515815260200191505060405180910390f35b6101696004803603602081101561013d57600080fd5b81019080803573ffffffffffffffffffffffffffffffffffffffff169060200190929190505050610516565b604051808263ffffffff1663ffffffff16815260200191505060405180910390f35b6101cd600480360360208110156101a157600080fd5b81019080803573ffffffffffffffffffffffffffffffffffffffff169060200190929190505050610539565b005b610211600480360360208110156101e557600080fd5b81019080803573ffffffffffffffffffffffffffffffffffffffff16906020019092919050505061078f565b005b6102756004803603604081101561022957600080fd5b81019080803573ffffffffffffffffffffffffffffffffffffffff169060200190929190803573ffffffffffffffffffffffffffffffffffffffff1690602001909291905050506109e7565b604051808215151515815260200191505060405180910390f35b6000600160003373ffffffffffffffffffffffffffffffffffffffff1673ffffffffffffffffffffffffffffffffffffffff16815260200190815260200160002060008373ffffffffffffffffffffffffffffffffffffffff1673ffffffffffffffffffffffffffffffffffffffff16815260200190815260200160002060006101000a81548160ff02191690831515021790555060008060008373ffffffffffffffffffffffffffffffffffffffff1673ffffffffffffffffffffffffffffffffffffffff16815260200190815260200160002060003373ffffffffffffffffffffffffffffffffffffffff1673ffffffffffffffffffffffffffffffffffffffff16815260200190815260200160002060006101000a81548160ff021916908315150217905550600260008273ffffffffffffffffffffffffffffffffffffffff1673ffffffffffffffffffffffffffffffffffffffff168152602001908152602001600020600081819054906101000a900463ffffffff16809291906001900391906101000a81548163ffffffff021916908363ffffffff160217905550506003600081548092919060010191905055507fd5f11fa6a9ce8e56fb239d7882e95aad2f31757a10ac053ef032639a07c7ba506003543383604051808481526020018373ffffffffffffffffffffffffffffffffffffffff1673ffffffffffffffffffffffffffffffffffffffff1681526020018273ffffffffffffffffffffffffffffffffffffffff1673ffffffffffffffffffffffffffffffffffffffff168152602001935050505060405180910390a150565b60006020528160005260406000206020528060005260406000206000915091509054906101000a900460ff1681565b60026020528060005260406000206000915054906101000a900463ffffffff1681565b60018060003373ffffffffffffffffffffffffffffffffffffffff1673ffffffffffffffffffffffffffffffffffffffff16815260200190815260200160002060008373ffffffffffffffffffffffffffffffffffffffff1673ffffffffffffffffffffffffffffffffffffffff16815260200190815260200160002060006101000a81548160ff02191690831515021790555060016000808373ffffffffffffffffffffffffffffffffffffffff1673ffffffffffffffffffffffffffffffffffffffff16815260200190815260200160002060003373ffffffffffffffffffffffffffffffffffffffff1673ffffffffffffffffffffffffffffffffffffffff16815260200190815260200160002060006101000a81548160ff021916908315150217905550600260008273ffffffffffffffffffffffffffffffffffffffff1673ffffffffffffffffffffffffffffffffffffffff168152602001908152602001600020600081819054906101000a900463ffffffff168092919060010191906101000a81548163ffffffff021916908363ffffffff160217905550506003600081548092919060010191905055507fc4f72463bd7c7c3afcc21ef0ce8d6a250f4af1ed6ed92494f1da058badc42d256003543383604051808481526020018373ffffffffffffffffffffffffffffffffffffffff1673ffffffffffffffffffffffffffffffffffffffff1681526020018273ffffffffffffffffffffffffffffffffffffffff1673ffffffffffffffffffffffffffffffffffffffff168152602001935050505060405180910390a150565b60008060003373ffffffffffffffffffffffffffffffffffffffff1673ffffffffffffffffffffffffffffffffffffffff16815260200190815260200160002060008373ffffffffffffffffffffffffffffffffffffffff1673ffffffffffffffffffffffffffffffffffffffff16815260200190815260200160002060006101000a81548160ff0219169083151502179055506000600160008373ffffffffffffffffffffffffffffffffffffffff1673ffffffffffffffffffffffffffffffffffffffff16815260200190815260200160002060003373ffffffffffffffffffffffffffffffffffffffff1673ffffffffffffffffffffffffffffffffffffffff16815260200190815260200160002060006101000a81548160ff021916908315150217905550600260003373ffffffffffffffffffffffffffffffffffffffff1673ffffffffffffffffffffffffffffffffffffffff168152602001908152602001600020600081819054906101000a900463ffffffff16809291906001900391906101000a81548163ffffffff021916908363ffffffff160217905550506003600081548092919060010191905055507f1fe6789cf54511fea185288192d656ba54d4b37aeb5408f64aa5fc5671ef93a96003543383604051808481526020018373ffffffffffffffffffffffffffffffffffffffff1673ffffffffffffffffffffffffffffffffffffffff1681526020018273ffffffffffffffffffffffffffffffffffffffff1673ffffffffffffffffffffffffffffffffffffffff168152602001935050505060405180910390a150565b60016020528160005260406000206020528060005260406000206000915091509054906101000a900460ff168156fea265627a7a7231582068f658817ce1ca5e5fcf18f11f691da1179077de034e7a2473b0f88c680ba91264736f6c63430005100032",
  "source": "// SPDX-License-Identifier: MIT\npragma solidity >=0.4.25 <0.7.0;\n\ncontract Graph {\n    event Followed(uint id, address child, address parent);\n    event Unfollowed(uint id, address child, address parent);\n    event FollowerDeleted(uint id, address parent, address child);\n\n    mapping(address => mapping(address => bool)) public followedBy;\n    mapping(address => mapping(address => bool)) public following;\n    mapping(address => uint32) public followerCount;\n\n    uint256 private idCounter;\n\n    constructor() public {\n       idCounter = 0;\n    }\n\n    function follow(address parent) public {\n        following[msg.sender][parent] = true;\n        followedBy[parent][msg.sender] = true;\n        followerCount[parent]++;\n        idCounter++;\n        emit Followed(idCounter, msg.sender, parent);\n    }\n\n    function unfollow(address parent) public {\n        following[msg.sender][parent] = false;\n        followedBy[parent][msg.sender] = false;\n        followerCount[parent]--;\n        idCounter++;\n        emit Unfollowed(idCounter, msg.sender, parent);\n    }\n\n    function deleteFollower(address child) public {\n        followedBy[msg.sender][child] = false;\n        following[child][msg.sender] = false;\n        followerCount[msg.sender]--;\n        idCounter++;\n        emit FollowerDeleted(idCounter, msg.sender, child);\n    }\n}\n",
  "sourcePath": "/Users/nathanaelmueller/Documents/Development/sociial-labs/grid/truffle-project/contracts/Graph.sol",
  "compiler": {
    "name": "solc",
    "version": "0.5.16+commit.9c3226ce.Emscripten.clang"
  },
  "schemaVersion": "3.2.2",
  "updatedAt": "2020-08-03T21:04:56.597Z",
  "networkType": "ethereum",
  "devdoc": {
    "methods": {}
  },
  "userdoc": {
    "methods": {}
  }
}